:03000000020C27C8
:0C0C2700787FE4F6D8FD75812B020C6E7E
:10080000120F11120EE0120F00120E7EC2943094DD
:1008100019E521B51B14E4B51A10E51630E703D32A
:100820008001C340054316808036309419E522B517
:100830001B14E4B51A10E51630E603D38001C3405B
:1008400005431640801A309417E522B51B12E4B513
:100850001A0EE51630E503D38001C340034316208A
:10086000E521651B7002E51A7022E51630E703D317
:100870008001C34017E51D9401E51C9400500DC391
:10088000E518943BE517940050028056E522651B5D
:100890007002E51A7022E51630E603D38001C340EA
:1008A00017E51D9401E51C9400500DC3E518943B19
:1008B000E51794005002802AE523651B7002E51AB3
:1008C0007026E51630E503D38001C3401BE51D9477
:1008D00001E51C94005011C3E518943BE517940002
:1008E0005006E4F51E120ECFE51630E703D3800163
:1008F000C3402AAF217E00EFB51B22EEB51A1EEFD2
:100900002401FFEE33FEC3E51B9FE51A9E500EE562
:100910001E700AE51D6402451C70028068E51630F1
:10092000E603D38001C3402AAF227E00EFB51B222D
:10093000EEB51A1EEF2401FFEE33FEC3E51B9FE563
:100940001A9E500EE51E700AE51D6402451C7002D9
:100950008033E51630E503D38001C3402BAF237EFF
:1009600000EFB51B23EEB51A1FEF2401FFEE33FE97
:10097000C3E51B9FE51A9E500FE51E700BE51D6435
:1009800002451C7003120E9EE5206401451F6003A2
:1009900002080E7F80120EECAE1AAF1B7C007D0A9F
:1009A000120BD2EF2430FF120EC2AE1AAF1B7C0026
:1009B0007D0A120BD2ED2430FF120EC27F3A120EC6
:1009C000C2AE1CAF1D7C007D0A120BD2EF2430FF9B
:1009D000120EC2AE1CAF1D7C007D0A120BD2ED249C
:1009E00030FF120EC27F3A120EC2AE17AF187C0053
:1009F0007D0A120BD2EF2430FF120EC2AE17AF18D1
:100A00007C007D0A120BD2ED2430FF120EC2E4F5F9
:060A10001FF52002080E94
:100D2800656E74657220736C6F7420313A200065AB
:100D38006E74657220736C6F7420323A2000656E91
:100D480074657220736C6F7420333A2000656E747A
:100D58006572204848204D4D2000415444393632B0
:100D6800343237393336383B0D7A004154480D7ADE
:010D7800007A
:100E3400011E0001160001212D01224C0123630231
:100E440008000002170000021A0000021C00000241
:070E54001F00000214000062
:100D7900AE07AD06AC05EC5401C43333335480FBE4
:100D8900EC5480C413131354014BFCED5402C433C7
:100D990054E0FBED5440C41354074BFDEE540433A7
:100DA900333354F8FBEE5420131313541F4BFEEF47
:0F0DB900540825E0FBEF5410C3134B4C4D4EFF75
:010DC8002208
:080E0C00C281D2807F017E004B
:100E1400E4FDFCC3ED9FEC9E5015E4FBFA0BBB0014
:0F0E2400010ABA04F8BBFBF50DBD00010C80E418
:010E3300229C
:0A0EEC008FA0C282120E0CC28022F9
:100E7E007F147E00120E147F1C120EEC7FF0120EE9
:100E8E00EC7F60120EEC7F80120EEC7F01020EECF6
:070EBB007F03120EECAF19DA
:0D0EC200120D798FA0D282120E0CC2802278
:0A0EF6007F80120EEC7F01020EEC6B
:070F1100D2AFD2ACD2A9223D
:060DC9008B278A2889290E
:100DCF00E4F52AF52BAB27AA28A929120B8C602C46
:100DDF00E52B6410452A70057F03120EECAB270537
:100DEF0029E529AA287002052814F9120B8CFF1285
:0C0DFF000EC2052BE52B70CD052A80C923
:010E0B0022C4
:0C0EE000758921758DFD759850D28E2209
:03002300020A16B8
:100A1600C0E0C0F0C083C082C0D075D000C000C0A6
:100A260001C002C003C004C005C006C00730990259
:100A3600C299209803020B71C29C859919E5192465
:100A4600D0FF0515E5157002051414240AF8A6074B
:100A5600E515640145146008E51564024514702522
:100A6600E51564014514700F120EF67BFF7A0D79B9
:100A760028120DC9120EBBE5156402451460030267
:100A86000B1E020B06E515640345146008E51564A4
:100A96000445147021E51564034514700F120EF613
:100AA6007BFF7A0D7937120DC9120EBBE51564046A
:100AB60045147064804AE515640545146008E5151B
:100AC600640645147021E51564054514700F120E71
:100AD600F67BFF7A0D7946120DC9120EBBE5156439
:100AE60006451470338019E5156407451470151210
:100AF6000EF67BFF7A0D7955120DC97F03120EECA7
:100B0600AF198011E51564084514AF197007120E68
:100B1600C27F3A8000120EC2E519647A7049AF1995
:100B2600120EC2E50A75F00AA4250BF521E50C752F
:100B3600F00AA4250DF522E50E75F00AA4250FF599
:100B460023E51075F00AA4AEF07C002511F51BEC28
:100B56003EF51AE51275F00AA4AEF02513F51DEC64
:100B66003EF51CD28CC2ACD29CC298D007D006D01F
:100B760005D004D003D002D001D000D0D0D082D08E
:060B860083D0F0D0E03244
:090F0000758CF8758ACCC28C22B4
:03001300020CB329
:100CB300C0E0C0D0758CF8758ACCC28D0509E509F2
:100CC30070020508B4F219E508B40114750800753B
:100CD30009000518E51870020517751F0075200136
:100CE300C3E518943CE51794004035751700751853
:100CF30000051DE51D7002051C943CE51C94004095
:100D03001F751C00751D00051BE51B7002051A9459
:100D130018E51A94004009751A00751B0075160032
:050D2300D0D0D0E03249
:100ECF00D2B77F587E02120E14C2B77F2C1E020EAD
:010EDF0014FE
:080F09008F993099FDC2992275
:060E5C008B248A25892683
:100E6200E4FEAB24AA25A9268E82758300120BA567
:0B0E7200FF647A6006120F090E80E793
:010E7D002252
:100E9E007BFF7A0D7962120E5C7FD07E07120E14E4
:0D0EAE007BFF7A0D7973120E5C751E012218
:100C3300020800E493A3F8E493A34003F68001F2CF
:100C430008DFF48029E493A3F85407240CC8C333C2
:100C5300C4540F4420C8834004F456800146F6DF91
:100C6300E4800B0102040810204080900E34E47EDF
:100C7300019360BCA3FF543F30E509541FFEE49386
:100C8300A360010ECF54C025E060A840B8E493A34D
:100C9300FAE493A3F8E493A3C8C582C8CAC583CA78
:100CA300F0A3C8C582C8CAC583CADFE9DEE780BE30
:010E5B000096
:100B8C00BB010689828A83E0225002E722BBFE0267
:090B9C00E32289828A83E493229A
:100BA500BB010CE58229F582E5833AF583E0225005
:100BB50006E92582F8E622BBFE06E92582F8E2224F
:0D0BC500E58229F582E5833AF583E4932269
:100BD200BC000BBE0029EF8DF084FFADF022E4CC07
:100BE200F875F008EF2FFFEE33FEEC33FCEE9DECD0
:100BF200984005FCEE9DFE0FD5F0E9E4CEFD22ED16
:100C0200F8F5F0EE8420D21CFEADF075F008EF2F5F
:100C1200FFED33FD4007985006D5F0F222C398FD50
:050C22000FD5F0EA22ED
:00000001FF
